:020000040800F2
:1000000050040020C1010008B30F0008010F0008D0
:10001000B10F0008CD0200083313000800000000F3
:10002000000000000000000000000000B70F000802
:10003000CF02000800000000B50F0008B90F00084B
:10004000DB010008DB010008DB010008DB01000820
:10005000DB010008DB010008DB010008DB01000810
:10006000DB010008DB010008DB010008DB01000800
:10007000DB010008DB010008DB010008DB010008F0
:10008000DB010008DB010008DB010008DB010008E0
:10009000DB010008DB010008DB010008DB010008D0
:1000A000DB010008DB010008DB010008DB010008C0
:1000B000DB010008DB010008DB010008DB010008B0
:1000C000DB010008DB010008DB010008DB010008A0
:1000D000DB010008DB010008DB010008DB01000890
:1000E000DB010008DB010008DB010008DB01000880
:1000F000DB010008DB010008DB010008DB01000870
:10010000DB010008DB010008DB010008DB0100085F
:10011000DB010008DB010008DB010008DB0100084F
:10012000DB010008DB010008DB010008DB0100083F
:10013000DB010008DB010008DB010008DB0100082F
:10014000DB010008DB010008DB010008DB0100081F
:10015000DB010008DB010008DB010008DB0100080F
:10016000DB010008DB010008DB010008DB010008FF
:10017000DB010008DB010008DB01000800000000D3
:10018000DB010008DB010008DB010008DB010008DF
:10019000DB010008DB010008DB010008DB010008CF
:1001A000DB010008DB010008DB010008DFF80CD0F0
:1001B00000F07AF80048004775130008500400204A
:1001C0000648804706480047FEE7FEE7FEE7FEE7F1
:1001D000FEE7FEE7FEE7FEE7FEE7FEE74510000864
:1001E000AD0100082DE9F05F0546002092469B46D0
:1001F00088460646814640241BE02846414647463D
:10020000224600F041F853465A46C01A914110D395
:1002100011461846224600F028F82D1A67EB01080F
:100220004F4622460120002100F01FF817EB00097D
:100230004E41201EA4F10104DFDC484631462A4627
:100240004346BDE8F09FD2B201E000F8012B491E01
:10025000FBD270470022F6E710B513460A46044663
:100260001946FFF7F0FF204610BD202A04DB203A94
:1002700000FA02F1002070479140C2F1200320FAF9
:1002800003F3194390407047202A04DB203A21FAF7
:1002900002F00021704721FA02F3D040C2F120029F
:1002A0009140084319467047064C074D06E0E06848
:1002B00040F0010394E8070098471034AC42F6D3AD
:1002C000FFF778FFF013000810140008FEE77047EE
:1002D00070B5044600F0F8F80546601C02D00448EA
:1002E0000078044400F0F0F8401BA042FAD370BD3F
:1002F000000000202DE9F84F00224FF001080325EF
:100300004FF00F0E0B6808FA02F42340A3426ED19F
:100310004E68012E05D0022E03D0112E01D0122ED0
:1003200012D186684FEA420C05FA0CF7BE43CF683B
:1003300007FA0CF7374387604668A6430C79C4F385
:100340000014944034434460C668570005FA07FC23
:100350008C6826EA0C06BC403443C4604C68022C0E
:1003600001D0122C13D1D40800EB8404A346D4F896
:10037000209054074FEAD46A0EFA0AF629EA0609D1
:100380000E6906FA0AF646EA0906CBF82060046808
:100390000E7924EA0C0406F00306BE4026430660EC
:1003A0004C68E4006FD53B4C266846F480462660D6
:1003B000246822F0030604F480440094364C34444C
:1003C000A446D4F808489607360F0EFA06F7BC4341
:1003D000324FB84201D100272EE0314FB84201D14F
:1003E000012729E02F4FB84202D1022724E04AE03A
:1003F0002D4FB84201D103271EE02C4FB84201D146
:10040000042719E02A4FB84201D1052714E0294FEB
:10041000B84201D106270FE0274FB84201D1072784
:100420000AE0264FB84201D1082705E0244FB84220
:1004300001D1092700E00A27B7402743CCF8087804
:10044000204E34684F689C43FF0300D51C43346042
:100450001C4E361D34684F689C43BF0300D51C43B7
:100460003460184E083634684F689C43FF0200D54C
:100470001C433460134E0C3634684F689C43BF02F3
:1004800000D51C433460521C102AFFF43BAFBDE87A
:10049000F88F000044380240003001400000024064
:1004A0000004024000080240000C0240001002401C
:1004B0000014024000180240001C024000200240CC
:1004C00000240240003C0140014880687047000061
:1004D0000000002002488168027811448160704762
:1004E000000000200B4810B5016841F40071016064
:1004F000016841F480610160016841F4807101602C
:10050000032000F061F8002000F006F800F024F865
:10051000002010BD003C024070B50D4D04464FF464
:100520007A712878B1FBF0F00A490968B1FBF0F064
:1005300000F00CFB48B9102C07D200222146501EB7
:1005400000F022F800206C6070BD012070BD00003A
:10055000000000200C0000200A4808B5016841F4A2
:1005600080410160006800F4804000900548001F51
:10057000016841F080510160006800F080500090F7
:1005800008BD000044380240F0B40E4B1B680C4616
:10059000C3F30223C3F10705042D00D90425191D57
:1005A000072901D2002300E0DB1E012606FA05F12F
:1005B000491E214099409E40761E16403143F0BCB2
:1005C00000F0B8BE0CED00E0064900F00702086834
:1005D0004FF6FF03184040EA0220034A1043086028
:1005E000704700000CED00E00000FA052DE9F8432B
:1005F0001748016841F0805101600068154F00F014
:100600008050012600903E64FFF75EFF05464FF4E0
:100610007A78114C05E000BFFFF756FF401B4045BC
:100620000DD86068C003F7D57E64FFF74DFF05461F
:10063000464607E0FFF748FF401BB04202D90320BF
:10064000BDE8F88360688003F4D50020F8E7000077
:100650004038024000000E42007000402DE9F04793
:100660000E46050065D0DFF81481D8F80000F7B217
:1006700000F00F00B04207D288F80070D8F80000F0
:1006800000F00F00B04254D128683D4C810712D5CC
:10069000400703D5206840F4E05020602878000728
:1006A00003D5206840F4604020602068A96820F0ED
:1006B000F000084320602878C0072DD030496868D2
:1006C0000839012812D0022813D0032811D0096854
:1006D000890700292DDA216821F0030101432160F7
:1006E000FFF7F2FE814641F2883A0EE0096889037D
:1006F000EFE709688901ECE7FFF7E6FEA0EB0901E7
:10070000514502D90320BDE8F0872068696800F0F0
:100710000C00B0EB810FEFD1D8F80010404601F08B
:100720000F01B14207D90770006800F00F00B04216
:1007300001D00120E7E72878400705D52068E9685F
:1007400020F4E050084320602878000706D5206890
:10075000296920F4604040EAC100206000F018F8E8
:100760002168084AC1F30311515CC840064908607A
:1007700006480068FFF7D0FE0020C4E7003C0240B6
:1007800008380240E01300080C000020040000209C
:10079000154810B5006810F00C02144813D0411031
:1007A000042A0FD0082A0ED10F4C241F2268236878
:1007B00002F03F025B0207D52068C0F38810A0FB5F
:1007C000010106E0084610BD2168C1F38811A1FBB4
:1007D00000010023FFF706FD2168C1F30141491C18
:1007E0004900B0FBF1F010BD083802400024F400CD
:1007F0002DE9F84F040076D02078DFF838A3CE4DED
:10080000C00749D0DAF800105046C1F38101012930
:1008100008D00068C0F3810002280AD1281D0068B2
:10082000400206D52868800336D560680028E2D0EB
:1008300032E06068B0F5803F10D0B0F5A02F286896
:1008400010D020F480302860286820F480202860B0
:100850006068A0B1FFF738FE06460CE0286840F457
:100860008030F4E740F480202860F7E7FFF72CFEA3
:10087000801B642873D828688003F7D50CE0FFF745
:1008800023FE064605E000BFFFF71EFE801B64281E
:10089000F0D828688003F7D42078DFF8A08280079A
:1008A0004FF000093ED5DAF80010504611F00C0F59
:1008B00009D00068C0F3810002280BD19D48001FB9
:1008C0000068400206D42868800715D5E068012832
:1008D00009D111E0E068B8B10120C8F80000FFF7C5
:1008E000F3FD064605E020E1FFF7EEFD801B022840
:1008F000C0D828688007F7D52868216920F0F8005B
:1009000040EAC10028600DE0C8F80090FFF7DCFD68
:10091000064604E0FFF7D8FD801B02281FD8286890
:100920008007F7D42078000722D5824E8448616979
:100930006C3671B101210160FFF7C6FD074604E086
:10094000FFF7C2FDC01B022809D830688007F7D521
:100950000EE0C0F80090FFF7B7FD074605E082E023
:10096000FFF7B2FDC01B02287DD830688007F7D49E
:100970002078400768D5DFF8BCB100270BF1380BB1
:10098000DBF80000C0000BD4DBF8001041F0805110
:10099000CBF80010DBF80000012700F08050009039
:1009A000684E3068C00510D4306840F48070306004
:1009B000FFF78AFD009005E0FFF786FD0099401AD9
:1009C000022850D83068C005F6D55A4EA06868365F
:1009D00001280FD00528306810D020F001003060C9
:1009E000306820F004003060A068B8B1FFF76CFDFB
:1009F00000900FE0306840F00100F4E740F00400A0
:100A00003060F7E7FFF760FD0099411A41F2883046
:100A1000814266D830688007F4D50EE0FFF754FDB8
:100A2000009007E0FFF750FD0099411A41F288302D
:100A3000814256D830688007F4D42FB1DBF800101B
:100A400021F08051CBF80010A069D0B3DAF8002073
:100A50005146C2F38102022A4AD00228484607D0F2
:100A6000C8F8600000E03CE0FFF72EFD04463BE0E4
:100A70004746C8F86000FFF727FD064605E000BFBF
:100A8000FFF722FD801B02282BD828688001F7D4AD
:100A9000D4E907010843A16A2B4A490802EB014146
:100AA000626A41EA8211084394F82C1040EA01611D
:100AB0002048001F016001203866FFF705FD04464D
:100AC00005E034E0FFF700FD001B022809D8286884
:100AD0008001F7D52BE000BFFFF7F6FC001B0228D2
:100AE00002D90320BDE8F88F28688001F4D41EE005
:100AF0000128F7D00868E26900F48001914214D11E
:100B0000226A00F03F0191420FD147F6C071626A3C
:100B10000140914209D1A26A00F44031914204D1CE
:100B2000E16A00F07060884201D00120DAE700201D
:100B3000D8E7000008380240003802400000474271
:100B4000800E4742007000400000FFFF10B5401EBD
:100B5000B0F1807F01D3012010BD4FF0E02460612F
:100B60000F21601700F0E6FB0020A0610720206144
:100B7000002010BD70B590F83C20012A32D001242D
:100B800080F83C40022280F83D2003685A689D6846
:100B900022F070060A6832435A60134B02689A4288
:100BA00014D0B2F1804F11D0104B9A420ED0104B9E
:100BB0009A420BD00F4B9A4208D00F4B9A4205D065
:100BC0000E4B9A4202D00E4B9A4204D1496825F04E
:100BD00080031943916080F83D40002180F83C106B
:100BE000084670BD022070BD0000014000040040B6
:100BF00000080040000C004000040140004001409B
:100C00000018004010B5040003D094F83D0010B166
:100C100007E0012010BD002084F83C00204600F0D1
:100C20000DF8022084F83D00211D206800F018FA1C
:100C3000012084F83D00002010BD000008B50068C8
:100C40000649884208D10648016841F00201016066
:100C5000006800F00200009008BD000000040040A1
:100C60004038024070B5044690F83C00012817D087
:100C7000012584F83C50022084F83D0020688268F9
:100C800022F0770222F47F4282600868502830D038
:100C90000DDC20284DD005DC98B310283BD148E06E
:100CA000022070BD302844D0402834D139E060287B
:100CB00028D0702806D0B0F5805F2CD0B0F5005F4A
:100CC00029D10AE0CB68D1E90121206800F039FA86
:100CD0002068816841F0770109E0CB68D1E9012102
:100CE000206800F02EFA2068816841F4804181601C
:100CF00011E0CA684968206800F0F8FA50212068BD
:100D000007E016E0CA684968206800F000FB60212F
:100D1000206800F020FA84F83D50002084F83C0060
:100D200070BDCA684968206800F0E0FA4021206878
:100D3000EFE7226801461046EBE7000030B587B0C8
:100D4000044614216846FFF785FA16492068884250
:100D500026D115480024016841F0010101600168B5
:100D600001F001010591016841F002010160006894
:100D7000022500F002000590C0200090CDE901544A
:100D800069460A48CDE90345FFF7B4FA032000900D
:100D9000CDE9015469460648CDE90345FFF7AAFAB3
:100DA00007B030BD0004004030380240000002406F
:100DB0000004024070B5044690F83C000D4601283E
:100DC0000DD0012684F83C60022084F83D0042B139
:100DD000042A18D0082A2AD00C2A4DD139E0022042
:100DE00070BD206800F0C0F92068816941F00801F9
:100DF00081612068816921F0040181612068816935
:100E00002A69114311E0206800F0DEF92068816949
:100E100041F4006181612068816921F48061816110
:100E2000206881692A6941EA0221816124E0206801
:100E300000F000FA2068C16941F00801C161206832
:100E4000C16921F00401C1612068C1692A691143A7
:100E500011E0206800F022FA2068C16941F40061C5
:100E6000C1612068C16921F48061C1612068C169E4
:100E70002A6941EA0221C16184F83D60002084F8BA
:100E80003C0070BD10B5040003D094F83D0010B1D3
:100E900007E0012010BD002084F83C00204600F04F
:100EA0000CF8022084F83D00211D206800F0D8F8DD
:100EB000012084F83D00002010BD704710B50446A5
:100EC0000068012200F030F90B492068884202D006
:100ED0000A49884203D1416C41F4004141642068D1
:100EE000816801F00701062903D0016841F0010182
:100EF0000160002010BD000000000140000401401E
:100F0000FEE7000030B58DB00024079408940994E2
:100F10000A940B941C2168460C94FFF79BF9234D0F
:100F2000214828605920C5E9010440F2E730C5E9AD
:100F300003042846AC61FFF765FE4FF4805007902C
:100F400007A92846FFF78EFE2846FFF79BFF0B9464
:100F50000BA928460C94FFF70DFE60200090E8686E
:100F60006421C0EB001000EB8000B0FBF1F0CDE994
:100F700001040022694628460494FFF71BFF04225F
:100F800069462846FFF716FF082269462846FFF7FC
:100F900011FF0C2269462846FFF70CFF2846FFF791
:100FA000CDFE0DB030BD0000000400401000002058
:100FB000FEE7704770477047FFF78CBA30B593B0C3
:100FC00030216846FFF746F914210CA8FFF742F9D3
:100FD0001A480025016841F080510160006800F066
:100FE000805011901648016841F44041016000684A
:100FF000022400F44040119001200390102004903E
:10100000009406940820CDE90750B420CDE90904E6
:1010100004200B906846FFF7EBFBFFF7E7FA0CA9FB
:101020000F2081E831004FF4A0500F90E0021090A3
:1010300005210CA8FFF712FB13B030BD4038024069
:10104000007000400548016841F4700101600349E7
:101050004FF00060803908607047000088ED00E0C4
:10106000F0B50268254C264D264E274F274B4FF0F2
:10107000804CA04209D0604507D0A84205D0B042BC
:1010800003D0B84201D0984204D122F0700E4A68D1
:1010900042EA0E02A0421BD0604519D0A84217D0E8
:1010A000B04215D0B84213D0984211D0184DA84282
:1010B0000ED0184DA8420BD0174DA84208D0174D9E
:1010C000A84205D0164DA84202D0164DA84203D121
:1010D00022F44075CA682A434D6922F080022A43EF
:1010E00002608A68C2620A688262A04201D09842A5
:1010F00001D10969016301214161F0BD0000014096
:101100000004004000080040000C004000040140C2
:1011100000400140004401400048014000180040E8
:10112000001C00400020004010B501F01F03012109
:10113000046A99408C430462016A9A401143016237
:1011400010BD10B5846842EA032224F47F440A43A8
:101150002243826010BD826822F070020A4342F08E
:101160000701816070470000F0B5026A22F00102B9
:101170000262036A42688469124E24F073050C68A7
:101180002C4323F002058B682B430D4DA84201D060
:10119000B04205D123F00807CB683B4323F004039A
:1011A000A84201D0B04205D14D6922F440721543E6
:1011B0008A692A4342608461496841630362F0BDE1
:1011C0000000014000040140F0B5026A22F0100264
:1011D0000262026A436884690D6824F4E64444EAC2
:1011E00005248D6822F0200242EA05120F4D104EB0
:1011F000A84201D0B04206D1CF6822F0800242EA74
:10120000071222F04002A84201D0B04207D14D6936
:1012100023F4406343EA85038D6943EA8503436011
:101220008461496881630262F0BD000000000140F2
:1012300000040140F0B5026A22F480720262026A80
:101240004368C46922F4007224F073050C68124EDE
:101250002C438D6842EA05220E4DA84201D0B042CF
:1012600006D1CF6822F4006242EA072222F48062AB
:10127000A84201D0B04207D14D6923F4405343EA5C
:1012800005138D6943EA05134360C4614968C1636E
:101290000262F0BD000001400004014030B5026A66
:1012A00022F480520262046A4268C3690D6823F422
:1012B000E64343EA05238D6824F4005444EA0534E8
:1012C000084DA84202D0084DA84204D14D6922F42D
:1012D000804242EA85124260C36149680164046247
:1012E00030BD0000000001400004014010B5036A59
:1012F000046A24F001040462846924F0F00444EADE
:10130000021423F00A020A438461026210BD10B580
:10131000036A23F0100303628369046A23F47043B1
:1013200043EA023224F0A00343EA01118261016220
:1013300010BDFEE70907090E002804DB00F1E020DC
:1013400080F80014704700F00F0000F1E02080F8F2
:10135000141D704702E008C8121F08C1002AFAD104
:1013600070477047002001E001C1121F002AFBD125
:101370007047000008B50024FFF7B4F8FFF71EFE21
:101380001548016841F080010160016801F08001A9
:101390000091016841F001010160016801F0010163
:1013A0000091016841F002010160006800F0020054
:1013B0000090FFF7A7FD0C210848FFF77FFD074DC0
:1013C000641DA4B2E868A04200D8002428688463A1
:1013D0000A20FEF77DFFF3E73038024010000020BE
:1013E00000000000000000000102030406070809D5
:1013F0001014000800000020100000005413000822
:1014000020140008100000204004000064130008AD
:101410000100000010000000000000000024F400A3
:04000005080001AD41
:00000001FF
